{
  "contractName": "Authentication",
  "abi": [
    {
      "anonymous": false,
      "inputs": [
        {
          "indexed": true,
          "internalType": "address",
          "name": "userAddress",
          "type": "address"
        },
        {
          "indexed": false,
          "internalType": "string",
          "name": "username",
          "type": "string"
        }
      ],
      "name": "UserLoggedIn",
      "type": "event"
    },
    {
      "anonymous": false,
      "inputs": [
        {
          "indexed": true,
          "internalType": "address",
          "name": "userAddress",
          "type": "address"
        },
        {
          "indexed": false,
          "internalType": "string",
          "name": "username",
          "type": "string"
        }
      ],
      "name": "UserRegistered",
      "type": "event"
    },
    {
      "inputs": [
        {
          "internalType": "address",
          "name": "_userAddress",
          "type": "address"
        },
        {
          "internalType": "string",
          "name": "_username",
          "type": "string"
        }
      ],
      "name": "registerUser",
      "outputs": [
        {
          "internalType": "bool",
          "name": "",
          "type": "bool"
        }
      ],
      "stateMutability": "nonpayable",
      "type": "function"
    },
    {
      "inputs": [
        {
          "internalType": "address",
          "name": "_userAddress",
          "type": "address"
        }
      ],
      "name": "userExists",
      "outputs": [
        {
          "internalType": "bool",
          "name": "",
          "type": "bool"
        }
      ],
      "stateMutability": "view",
      "type": "function",
      "constant": true
    },
    {
      "inputs": [
        {
          "internalType": "address",
          "name": "_userAddress",
          "type": "address"
        }
      ],
      "name": "loginUser",
      "outputs": [
        {
          "internalType": "string",
          "name": "",
          "type": "string"
        }
      ],
      "stateMutability": "view",
      "type": "function",
      "constant": true
    },
    {
      "inputs": [
        {
          "internalType": "string",
          "name": "_username",
          "type": "string"
        }
      ],
      "name": "usernameExists",
      "outputs": [
        {
          "internalType": "bool",
          "name": "",
          "type": "bool"
        }
      ],
      "stateMutability": "view",
      "type": "function",
      "constant": true
    }
  ],
  "bytecode": "0x608060405234801561001057600080fd5b50610c0a806100206000396000f3fe608060405234801561001057600080fd5b506004361061004c5760003560e01c80630e666e49146100515780630ea126f9146100815780636bbeb9de146100b1578063f309e3f9146100e1575b600080fd5b61006b6004803603810190610066919061068b565b610111565b6040516100789190610879565b60405180910390f35b61009b600480360381019061009691906106b8565b610169565b6040516100a89190610879565b60405180910390f35b6100cb60048036038101906100c6919061068b565b6103cd565b6040516100d89190610894565b60405180910390f35b6100fb60048036038101906100f69190610714565b61052e565b6040516101089190610879565b60405180910390f35b60008060008373ffffffffffffffffffffffffffffffffffffffff1673ffffffffffffffffffffffffffffffffffffffff16815260200190815260200160002060010160009054906101000a900460ff169050919050565b6000808251116101ae576040517f08c379a00000000000000000000000000000000000000000000000000000000081526004016101a5906108b6565b60405180910390fd5b6001826040516101be9190610862565b908152602001604051809103902060009054906101000a900460ff161561021a576040517f08c379a0000000000000000000000000000000000000000000000000000000008152600401610211906108f6565b60405180910390fd5b6000808473ffffffffffffffffffffffffffffffffffffffff1673ffffffffffffffffffffffffffffffffffffffff16815260200190815260200160002060010160009054906101000a900460ff16156102a9576040517f08c379a00000000000000000000000000000000000000000000000000000000081526004016102a0906108d6565b60405180910390fd5b6040518060400160405280838152602001600115158152506000808573ffffffffffffffffffffffffffffffffffffffff1673ffffffffffffffffffffffffffffffffffffffff168152602001908152602001600020600082015181600001908051906020019061031b929190610563565b5060208201518160010160006101000a81548160ff021916908315150217905550905050600180836040516103509190610862565b908152602001604051809103902060006101000a81548160ff0219169083151502179055508273ffffffffffffffffffffffffffffffffffffffff167f48cac28ad4dc618e15f4c2dd5e97751182f166de97b25618318b2112aa951a2f836040516103bb9190610894565b60405180910390a26001905092915050565b60606000808373ffffffffffffffffffffffffffffffffffffffff1673ffffffffffffffffffffffffffffffffffffffff16815260200190815260200160002060010160009054906101000a900460ff1661045d576040517f08c379a000000000000000000000000000000000000000000000000000000000815260040161045490610916565b60405180910390fd5b6000808373ffffffffffffffffffffffffffffffffffffffff1673ffffffffffffffffffffffffffffffffffffffff16815260200190815260200160002060000180546104a990610a33565b80601f01602080910402602001604051908101604052809291908181526020018280546104d590610a33565b80156105225780601f106104f757610100808354040283529160200191610522565b820191906000526020600020905b81548152906001019060200180831161050557829003601f168201915b50505050509050919050565b60006001826040516105409190610862565b908152602001604051809103902060009054906101000a900460ff169050919050565b82805461056f90610a33565b90600052602060002090601f01602090048101928261059157600085556105d8565b82601f106105aa57805160ff19168380011785556105d8565b828001600101855582156105d8579182015b828111156105d75782518255916020019190600101906105bc565b5b5090506105e591906105e9565b5090565b5b808211156106025760008160009055506001016105ea565b5090565b60006106196106148461095b565b610936565b90508281526020810184848401111561063557610634610af9565b5b6106408482856109f1565b509392505050565b60008135905061065781610bbd565b92915050565b600082601f83011261067257610671610af4565b5b8135610682848260208601610606565b91505092915050565b6000602082840312156106a1576106a0610b03565b5b60006106af84828501610648565b91505092915050565b600080604083850312156106cf576106ce610b03565b5b60006106dd85828601610648565b925050602083013567ffffffffffffffff8111156106fe576106fd610afe565b5b61070a8582860161065d565b9150509250929050565b60006020828403121561072a57610729610b03565b5b600082013567ffffffffffffffff81111561074857610747610afe565b5b6107548482850161065d565b91505092915050565b610766816109c5565b82525050565b60006107778261098c565b6107818185610997565b9350610791818560208601610a00565b61079a81610b08565b840191505092915050565b60006107b08261098c565b6107ba81856109a8565b93506107ca818560208601610a00565b80840191505092915050565b60006107e3601883610997565b91506107ee82610b19565b602082019050919050565b6000610806601a83610997565b915061081182610b42565b602082019050919050565b6000610829601783610997565b915061083482610b6b565b602082019050919050565b600061084c601383610997565b915061085782610b94565b602082019050919050565b600061086e82846107a5565b915081905092915050565b600060208201905061088e600083018461075d565b92915050565b600060208201905081810360008301526108ae818461076c565b905092915050565b600060208201905081810360008301526108cf816107d6565b9050919050565b600060208201905081810360008301526108ef816107f9565b9050919050565b6000602082019050818103600083015261090f8161081c565b9050919050565b6000602082019050818103600083015261092f8161083f565b9050919050565b6000610940610951565b905061094c8282610a65565b919050565b6000604051905090565b600067ffffffffffffffff82111561097657610975610ac5565b5b61097f82610b08565b9050602081019050919050565b600081519050919050565b600082825260208201905092915050565b600081905092915050565b60006109be826109d1565b9050919050565b60008115159050919050565b600073ffffffffffffffffffffffffffffffffffffffff82169050919050565b82818337600083830152505050565b60005b83811015610a1e578082015181840152602081019050610a03565b83811115610a2d576000848401525b50505050565b60006002820490506001821680610a4b57607f821691505b60208210811415610a5f57610a5e610a96565b5b50919050565b610a6e82610b08565b810181811067ffffffffffffffff82111715610a8d57610a8c610ac5565b5b80604052505050565b7f4e487b7100000000000000000000000000000000000000000000000000000000600052602260045260246000fd5b7f4e487b7100000000000000000000000000000000000000000000000000000000600052604160045260246000fd5b600080fd5b600080fd5b600080fd5b600080fd5b6000601f19601f8301169050919050565b7f557365726e616d652063616e6e6f7420626520656d7074790000000000000000600082015250565b7f4164647265737320616c72656164792072656769737465726564000000000000600082015250565b7f557365726e616d6520616c726561647920657869737473000000000000000000600082015250565b7f5573657220646f6573206e6f7420657869737400000000000000000000000000600082015250565b610bc6816109b3565b8114610bd157600080fd5b5056fea26469706673582212201799806c19245a3831981dce8d1dbd4d1df03fe07dbf9e244bd487a65bf3729264736f6c63430008060033",
  "immutableReferences": {},
  "source": "pragma solidity ^0.8.0;\r\n\r\ncontract Authentication {\r\n    struct User { // Structure to store user information\r\n        string username;\r\n        bool exists;\r\n    }\r\n\r\n    mapping(address => User) private users; // Mapping from address to User\r\n    mapping(string => bool) private usernames; // Mapping from username to check if username exists\r\n\r\n    event UserRegistered(address indexed userAddress, string username);\r\n    event UserLoggedIn(address indexed userAddress, string username);\r\n\r\n    function registerUser(address _userAddress, string memory _username) public returns (bool) {\r\n        require(bytes(_username).length > 0, \"Username cannot be empty\"); // Check if username is not empty\r\n        require(!usernames[_username], \"Username already exists\"); // Check if username already exists\r\n        require(!users[_userAddress].exists, \"Address already registered\"); // Check if address already has a user\r\n\r\n        users[_userAddress] = User(_username, true); // Register the user\r\n        usernames[_username] = true;\r\n        emit UserRegistered(_userAddress, _username); // Emit event\r\n        return true;\r\n    }\r\n\r\n    function userExists(address _userAddress) public view returns (bool) { // Function to check if user exists\r\n        return users[_userAddress].exists;\r\n    }\r\n\r\n    function loginUser(address _userAddress) public view returns (string memory) {\r\n        require(users[_userAddress].exists, \"User does not exist\"); // Check if user exists\r\n        return users[_userAddress].username;\r\n    }\r\n\r\n    function usernameExists(string memory _username) public view returns (bool) {\r\n        return usernames[_username];\r\n    }\r\n}",
  "sourcePath": "C:\\Users\\USER\\Desktop\\Project\\NFR\\Services\\Authentification-Service\\blockchain-auth\\contracts\\Authentication.sol",
  "compiler": {
    "name": "solc",
    "version": "0.8.6+commit.11564f7e.Emscripten.clang"
  },
  "schemaVersion": "3.4.16",
  "updatedAt": "2025-05-23T16:36:46.870Z",
  "networkType": "ethereum",
  "devdoc": {
    "kind": "dev",
    "methods": {},
    "version": 1
  },
  "userdoc": {
    "kind": "user",
    "methods": {},
    "version": 1
  }
}